{
  "_format": "hh-sol-artifact-1",
  "contractName": "PaymentRegistry",
  "sourceName": "contracts/PaymentRegistry.sol",
  "abi": [
    {
      "inputs": [],
      "name": "ZeroAddress",
      "type": "error"
    },
    {
      "inputs": [],
      "name": "ZeroAmount",
      "type": "error"
    },
    {
      "anonymous": false,
      "inputs": [
        {
          "indexed": true,
          "internalType": "address",
          "name": "from",
          "type": "address"
        },
        {
          "indexed": true,
          "internalType": "address",
          "name": "to",
          "type": "address"
        },
        {
          "indexed": false,
          "internalType": "uint256",
          "name": "amount",
          "type": "uint256"
        },
        {
          "indexed": false,
          "internalType": "string",
          "name": "fromHandle",
          "type": "string"
        },
        {
          "indexed": false,
          "internalType": "string",
          "name": "toHandle",
          "type": "string"
        },
        {
          "indexed": false,
          "internalType": "string",
          "name": "note",
          "type": "string"
        },
        {
          "indexed": false,
          "internalType": "uint256",
          "name": "timestamp",
          "type": "uint256"
        }
      ],
      "name": "PaymentLogged",
      "type": "event"
    },
    {
      "inputs": [
        {
          "internalType": "address",
          "name": "account",
          "type": "address"
        }
      ],
      "name": "getStats",
      "outputs": [
        {
          "components": [
            {
              "internalType": "uint256",
              "name": "totalSentWei",
              "type": "uint256"
            },
            {
              "internalType": "uint256",
              "name": "totalReceivedWei",
              "type": "uint256"
            },
            {
              "internalType": "uint256",
              "name": "sentCount",
              "type": "uint256"
            },
            {
              "internalType": "uint256",
              "name": "receivedCount",
              "type": "uint256"
            }
          ],
          "internalType": "struct PaymentRegistry.Stats",
          "name": "",
          "type": "tuple"
        }
      ],
      "stateMutability": "view",
      "type": "function"
    },
    {
      "inputs": [
        {
          "internalType": "address",
          "name": "to",
          "type": "address"
        },
        {
          "internalType": "uint256",
          "name": "amount",
          "type": "uint256"
        },
        {
          "internalType": "string",
          "name": "fromHandle",
          "type": "string"
        },
        {
          "internalType": "string",
          "name": "toHandle",
          "type": "string"
        },
        {
          "internalType": "string",
          "name": "note",
          "type": "string"
        }
      ],
      "name": "logPayment",
      "outputs": [],
      "stateMutability": "nonpayable",
      "type": "function"
    },
    {
      "inputs": [
        {
          "internalType": "address",
          "name": "",
          "type": "address"
        }
      ],
      "name": "statsOf",
      "outputs": [
        {
          "internalType": "uint256",
          "name": "totalSentWei",
          "type": "uint256"
        },
        {
          "internalType": "uint256",
          "name": "totalReceivedWei",
          "type": "uint256"
        },
        {
          "internalType": "uint256",
          "name": "sentCount",
          "type": "uint256"
        },
        {
          "internalType": "uint256",
          "name": "receivedCount",
          "type": "uint256"
        }
      ],
      "stateMutability": "view",
      "type": "function"
    },
    {
      "inputs": [],
      "name": "totalPayments",
      "outputs": [
        {
          "internalType": "uint256",
          "name": "",
          "type": "uint256"
        }
      ],
      "stateMutability": "view",
      "type": "function"
    },
    {
      "inputs": [],
      "name": "totalVolumeWei",
      "outputs": [
        {
          "internalType": "uint256",
          "name": "",
          "type": "uint256"
        }
      ],
      "stateMutability": "view",
      "type": "function"
    }
  ],
  "bytecode": "0x608060405234801561001057600080fd5b5061052b806100206000396000f3fe608060405234801561001057600080fd5b50600436106100565760003560e01c80625b44871461005b57806315cfc405146100775780638e4aaa0d146100cc578063bd14b499146100e1578063c23f85d6146100ea575b600080fd5b61006460015481565b6040519081526020015b60405180910390f35b6100ac61008536600461032e565b60006020819052908152604090208054600182015460028301546003909301549192909184565b60408051948552602085019390935291830152606082015260800161006e565b6100df6100da366004610399565b610130565b005b61006460025481565b6100fd6100f836600461032e565b61029b565b60405161006e91908151815260208083015190820152604080830151908201526060918201519181019190915260800190565b6001600160a01b0388166101575760405163d92e233d60e01b815260040160405180910390fd5b8660000361017857604051631f2a200560e01b815260040160405180910390fd5b33600090815260208190526040812080549091899183919061019b90849061044d565b9250508190555060018160020160008282546101b7919061044d565b90915550506001600160a01b038916600090815260208190526040812060018101805491928b926101e990849061044d565b925050819055506001816003016000828254610205919061044d565b92505081905550600180600082825461021e919061044d565b925050819055508860026000828254610237919061044d565b90915550506040516001600160a01b038b169033907ffa200613528898391e0b2861300811f2835c130ced421de612cbcabd1b71a55890610287908d908d908d908d908d908d908d90429061049d565b60405180910390a350505050505050505050565b6102c66040518060800160405280600081526020016000815260200160008152602001600081525090565b506001600160a01b031660009081526020818152604091829020825160808101845281548152600182015492810192909252600281015492820192909252600390910154606082015290565b80356001600160a01b038116811461032957600080fd5b919050565b60006020828403121561034057600080fd5b61034982610312565b9392505050565b60008083601f84011261036257600080fd5b50813567ffffffffffffffff81111561037a57600080fd5b60208301915083602082850101111561039257600080fd5b9250929050565b60008060008060008060008060a0898b0312156103b557600080fd5b6103be89610312565b975060208901359650604089013567ffffffffffffffff808211156103e257600080fd5b6103ee8c838d01610350565b909850965060608b013591508082111561040757600080fd5b6104138c838d01610350565b909650945060808b013591508082111561042c57600080fd5b506104398b828c01610350565b999c989b5096995094979396929594505050565b8082018082111561046e57634e487b7160e01b600052601160045260246000fd5b92915050565b81835281816020850137506000828201602090810191909152601f909101601f19169091010190565b88815260a0602082015260006104b760a08301898b610474565b82810360408401526104ca81888a610474565b905082810360608401526104df818688610474565b915050826080830152999850505050505050505056fea2646970667358221220f337324593e59f7fe7ecd6a44cee75f3f7ae75f7727068ddcad448f700f5f4d764736f6c63430008180033",
  "linkReferences": {},
  "deployedLinkReferences": {}
}